:100000000C9434000C9446000C9446000C9446006A
:100010000C9446000C9446000C9446000C94460048
:100020000C9446000C9446000C9446000C94460038
:100030000C9446000C9446000C9446000C94460028
:100040000C9446000C9446000C9475000C944600E9
:100050000C9446000C9446000C9446000C94460008
:100060000C9446000C94460011241FBECFEFD8E03C
:10007000DEBFCDBF21E0A0E0B1E001C01D92A238FB
:10008000B207E1F70E945D000C9497000C94000009
:100090009091010180910001981769F0E92FF0E03B
:1000A000EE5FFE4F80819F5F1AF0909301010895EB
:1000B00010920101089580E008951092C50087E62E
:1000C0008093C40080E98093C10086E08093C200E1
:1000D00080E284B978940E944800813311F42D9A0B
:1000E000FACF8033C1F72D98F6CF1F920F920FB63B
:1000F0000F9211248F939F93EF93FF9380910001B0
:100100009091C600E82FF0E0EE5FFE4F90838F5F86
:100110001AF08093000102C010920001FF91EF914C
:100120009F918F910F900FBE0F901F901895F8948C
:02013000FFCFFF
:00000001FF
