:100000000C9434000C9446000C9446000C9446006A
:100010000C9446000C9446000C9446000C94460048
:100020000C9446000C9446000C9446000C94460038
:100030000C9446000C9446000C9446000C94460028
:100040000C9446000C9446000C94C2000C9446009C
:100050000C9446000C9446000C9446000C94460008
:100060000C9446000C94460011241FBECFEFD8E03C
:10007000DEBFCDBF21E0A0E0B1E001C01D92A638F7
:10008000B207E1F70E9467000C94E4000C940000B2
:1000900090910101809100019817B9F0E92FF0E0EB
:1000A000EA5FFE4F80819F5F9093010120910201E2
:1000B000309103012F5F3F4F3093030120930201E2
:1000C000992324F410920101089580E0089510927C
:1000D000C50087E68093C40080E98093C10086E074
:1000E0008093C20080E284B9789410920401109247
:1000F000050112E0D1E0C3E00E9448002091020116
:1001000030910301232BC1F390910401913079F0D8
:1001100028F09230A1F09330D1F02BC02D9881338C
:1001200019F4D093050125C01092050122C0823335
:1001300019F4109305011DC0109205011AC08333F4
:1001400019F4C093050115C01092050112C0843343
:1001500071F4109205012D9A2FED83E994E021505E
:1001600080409040E1F700C000002D9802C010923E
:100170000501809105018093040110920301109202
:100180000201BACF1F920F920FB60F9211248F93D4
:100190009F93EF93FF93809100019091C600E82F09
:1001A000F0E0EA5FFE4F90838F5F1AF080930001CA
:1001B00002C010920001FF91EF919F918F910F90DB
:0C01C0000FBE0F901F901895F894FFCF11
:00000001FF
