S01B000054657374456D62656464656450726F6A6563742E7372656388
S11300000C9434000C9446000C9446000C94460066
S11300100C9446000C9446000C9446000C94460044
S11300200C9446000C9446000C9446000C94460034
S11300300C9446000C9446000C9446000C94460024
S11300400C9446000C9446000C94C2000C94460098
S11300500C9446000C9446000C9446000C94460004
S11300600C9446000C94460011241FBECFEFD8E038
S1130070DEBFCDBF21E0A0E0B1E001C01D92A638F3
S1130080B207E1F70E9467000C94E9000C940000A9
S113009090910101809100019817B9F0E92FF0E0E7
S11300A0EA5FFE4F80819F5F9093010120910201DE
S11300B0309103012F5F3F4F3093030120930201DE
S11300C0992324F410920101089580E00895109278
S11300D0C50089E18093C400E1ECF0E08081886987
S11300E08083E2ECF0E080818460808380E284B9E4
S11300F0789410920401109205016894EE24E1F8BA
S1130100FF24F39403E0C6ECD0E019E50E94480014
S11301102091020130910301232BC1F3909104013A
S1130120913079F028F09230A1F09330D1F021C0D1
S11301302D98813319F4F09205011BC0109205012A
S113014018C0823319F4E092050113C0109205011E
S113015010C0833319F4009305010BC010920501FC
S113016008C0843321F410920501188302C0109250
S113017005018091050180930401109203011092FE
S11301800201C4CF1F920F920FB60F9211248F93C6
S1130190AF93BF93EF93FF93E6ECF0E08081A091DF
S11301A00001B0E0AA5FBE4F8C9380838091000170
S11301B08F5F1AF08093000102C010920001FF913A
S11301C0EF91BF91AF918F910F900FBE0F901F9041
S10901D01895F894FFCF1E
S9030000FC
